:020000040800F2
:10000000D03E01209D010008C91D0008C51D000843
:10001000C71D00081F080008CB24000800000000CE
:10002000000000000000000000000000ED1D0008BE
:10003000D10A000800000000EB1D00080D1E00089A
:10004000B7010008B7010008B7010008B7010008B0
:10005000B7010008B7010008B7010008B7010008A0
:10006000B7010008B7010008B7010008B701000890
:10007000B7010008B7010008B7010008090A000825
:10008000150A0008B7010008B7010008B701000809
:10009000B7010008B7010008B7010008B701000860
:1000A000B7010008B7010008B7010008B701000850
:1000B000B7010008E51E0008B7010008B7010008F5
:1000C000B7010008B7010008B7010008B701000830
:1000D000B7010008B7010008B7010008B701000820
:1000E000B7010008B7010008B7010008B701000810
:1000F000B7010008B7010008B7010008B701000800
:10010000B7010008B7010008B7010008B7010008EF
:100110001D200008B7010008B7010008B70100085A
:10012000B7010008210A0008B7010008B70100085C
:10013000B7010008B7010008B7010008B7010008BF
:10014000B7010008B7010008B7010008B7010008AF
:10015000B7010008B7010008B7010008B70100089F
:10016000B7010008B7010008B7010008B70100088F
:10017000B7010008B7010008B7010008000000003F
:10018000B7010008B7010008DFF80CD000F018FB39
:10019000004800477D300008D03E012006488047D7
:1001A00006480047FEE7FEE7FEE7FEE7FEE7FEE75C
:1001B000FEE7FEE7FEE7FEE7911E00088901000862
:1001C0002DE9F05F0546002092469B46884606468C
:1001D000814640241BE0284641464746224600F01F
:1001E0001FFA53465A46C01A914110D31146184679
:1001F000224600F006FA2D1A67EB01084F46224608
:100200000120002100F0FDF917EB00094E41201EEE
:10021000A4F10104DFDC484631462A464346BDE8E6
:10022000F09F40EA01039B0703D009E008C9121FB1
:1002300008C0042AFAD203E011F8013B00F8013BA0
:10024000521EF9D27047D2B201E000F8012B491ECC
:10025000FBD270470022F6E710B513460A46044663
:100260001946FFF7F0FF204610BD421C10F8011B95
:100270000029FBD1801A70472DE9FE4F804681EAA4
:100280000300C00F0C46009021F0004123F0004510
:10029000B8EB0200A94105D24046214690461C46D3
:1002A0000B46024623F00040104347D0270DC7F30A
:1002B0000A00C3F30A510290401A019040286BDAF9
:1002C000C3F3130040F4801B0098924620B1002332
:1002D000D2EB030A63EB0B0B01985946C0F14002C5
:1002E000504600F08EF906460D4650465946019A92
:1002F00000F0A6F910EB08006141002487EA1152D2
:1003000084EAE7731A4340D0009A62B3019A012A43
:100310004FEA075215DC001B61EB02014FF000426F
:1003200002EA0752CDE90042001C41F58011324635
:100330002B4600F0A6F903B0BDE8F08F40462146F9
:10034000F9E7001B61EB0201001C41F58013001866
:100350005B412018A2F5001747EB030140EAD57076
:10036000B6196D4111E06D084FEA360645EAC075D1
:100370004FEA0752001B61EB0201001C41F580119E
:1003800049084FEA30000019514132462B4603B06C
:10039000BDE8F04F00F066B900980122400000234C
:1003A000D0EB020263EBE073009821464FEAE07461
:1003B000B8EB000061EB0401E9E783F000435BE781
:1003C00081F0004158E72DE9FE4F81EA030404F073
:1003D000004421F0004100944FF0000B23F0004353
:1003E00050EA01045ED052EA03045BD0C3F30A541E
:1003F000C1F30A552C44A4F2F3340194A0FB025437
:10040000C1F3130141F48011C3F3130343F48013C8
:1004100001FB024400FB034E840A970A44EA81541C
:1004200047EA8357A4FB076802958D0A05FB0785F9
:100430004FEA932C04FB0C542705029D4FEA065803
:1004400047EA1637B5EB08056EEB070C870E920EE0
:1004500047EA811742EA8312A7FB0201B6EB0B01C0
:1004600064EB00042B0D43EA0C335E1844EB1C5084
:10047000DA465146E7FB0201C5F313044FEA0B339A
:1004800043EA14534FEA0432019C43EA0603A4F101
:100490000C040294009CCDE900B400F0F2F803B023
:1004A000BDE8F08F00200146F9E72DE9F04D81EA23
:1004B000030404F0004B21F0004514464FF0000AFD
:1004C00023F0004150EA050220D054EA01021DD079
:1004D000C5F30A570246C5F31303C1F31300C1F372
:1004E0000A5640F4801543F48013A7EB0608101B4E
:1004F000D64608F2FD3873EB050002D308F1010877
:1005000001E092185B41B8F1000F03DA00200146C8
:10051000BDE8F08D00204FF48011064684460EE0C1
:10052000171B73EB050705D3121B63EB050306438B
:100530004CEA010C49084FEA300092185B4150EA3E
:100540000107EDD152EA030012D082EA040083EAE7
:100550000501084305D0101BAB4106D20122002340
:1005600006E000224FF0004302E06FF0010253105A
:100570001AEB06004CEB085110EB0A0041EB0B01A3
:10058000BDE8F04D00F06EB80EB5C10F80EAE07026
:100590000844CA07002140F233438DE80E000A46A2
:1005A0000B4600F06EF803B000BD0EB540F23341CB
:1005B00002910021CDE900110A460B4600F061F8D6
:1005C00003B000BD70B5C1F30A5201F0004500242C
:1005D000C1F3130140F2FF3341F480119A4201DA72
:1005E000002070BD40F233439A42A2F2334203DC52
:1005F000524200F015F800E090402C43F1D0404208
:1006000070BD202A04DB203A00FA02F10020704776
:100610009140C2F1200320FA03F319439040704740
:10062000202A04DB203A21FA02F00021704721FA47
:1006300002F3D040C2F120029140084319467047AE
:10064000202A06DBCB17203A41FA02F043EAE07396
:1006500006E041FA02F3D040C2F120029140084383
:100660001946704710B5141E73F1000408DA401CD7
:1006700041F1000192185B411A4301D120F00100C1
:1006800010BD2DE9F04D92469B4611B1B1FA81F2B1
:1006900002E0B0FA80F220329046FFF7B2FF044643
:1006A0000F4640EA0A0041EA0B0153465A46084306
:1006B00013D0114653EA010019D0C8F14002504648
:1006C000FFF7AEFF05460E46504659464246FFF735
:1006D00098FF084305D0012004E020463946BDE8D4
:1006E000F08D0020054346EAE0762C4337430A9814
:1006F0006305E40AA0EB08000022FD0A44EA47541F
:100700000A3002D500200146E9E7010510196941C8
:10071000DDE9084500196941BDE8F04DA2E72DE982
:10072000F04D00231A461B1A8A4103DB00200146C4
:10073000BDE8F08DC1F30A52C1F3130141F48015F5
:100740004FF0000BD10702D100186D41521E002757
:10075000044640F2FF11384601EB620A3E468046ED
:10076000024600204FF48011FFF75AFFC219714171
:10077000BB1846EB0100B4EB030C75EB000C04D383
:10078000E41A65EB000517460E46241908F101002E
:100790006D4180463428E3DDF91946EB0600091B5C
:1007A000A84103D24FF0FF32134601E00022134666
:1007B0001BEB070046EB0A51BDE8F04DFFF752BFB7
:1007C000064C074D06E0E06840F0010394E807009E
:1007D00098471034AC42F6D3FFF7DAFCC83900086A
:1007E000E839000830B58C1810F8012B12F00F030F
:1007F00001D110F8013B120906D110F8012B03E0DA
:1008000010F8015B01F8015B5B1EF9D101E001F812
:10081000013B521EFBD1A142E6D3002030BDFEE7D2
:10082000154808B5016841F400110160016801F440
:1008300000110091016841F480010160006801220B
:1008400000F48000009011460F2000F02BFC0F20D8
:1008500000F01CFC01220021102000F023FC1020DD
:1008600000F014FC01220021392000F01BFCBDE83F
:100870000840392000F00ABC30380240244810B546
:10088000026886B0002142F001020260026802F0B4
:1008900001020592026842F008020260026802F05A
:1008A00008020592026842F004020260026802F047
:1008B00004020592026842F00802026000684FF4E8
:1008C000704200F00800059001200092CDE901017E
:1008D000104C03906946204600F096FA00224FF42F
:1008E0000051204600F06CFB0022A114204600F0CD
:1008F00067FB00224FF48041204600F061FB00229C
:100900004FF40041204600F05BFB06B010BD000034
:1009100030380240000C024010B588B000241C485A
:10092000009401940294039404941849059401607E
:1009300042F20701C0E9011444F61F61C0E9031443
:100940001448016841F002010160006800F00200F3
:1009500006900F4800F08EFE4FF4805000906946DC
:100960000B4800F0CDFE049404A90948059400F05A
:1009700059FE002202211D2000F094FB1D2000F0F2
:1009800085FB034800F0B0FE08B010BD0004004035
:10099000705A00204038024070B517494FF416567F
:1009A0000024C1E90164134ACC600C250A60C1E946
:1009B00004458C610846CC6101F06EF810480F497F
:1009C0000160C0E90164C460C0E904458461C46198
:1009D00001F062F808480B49403801607100C0E935
:1009E0000114C460C0E904458461C461BDE870407D
:1009F00001F052B8004400408C3A0120001401403C
:100A0000305A0020004C0040014800F075B800004A
:100A100018390120014800F06FB800007839012032
:100A2000014800F069B80000D83901200168182396
:100A3000CAB2103AB2FBF3F2054B6FF30901032A75
:100A40009B5CC36500D9091D81650846704700009D
:100A50008838000810B5014600208B698A6A4FF07B
:100A6000C07453B1B3F5005F15D072B1012A0CD038
:100A7000022A0AD0032A09D104E01AB1012A06D0B9
:100A8000022A03D1C96AC90100D5012010BDC96A73
:100A9000A142FAD010BD002AF7D0012AF2D0022AD2
:100AA000F3D0032AF3D010BD30B50468256825F4CF
:100AB00080252560046863608368402B036803D049
:100AC00099600068C26030BD9A600068C16030BD46
:100AD0007047704790F83510022903D08021416596
:100AE00001207047052180F835100068016821F069
:100AF00001010160002070472DE9F84304464FF0E2
:100B00000009CDF8009063484FF41651A56D0068B8
:100B1000B0FBF1F72E6894F85C10082000FA01F1A0
:100B200031420FD021680A6852070BD50A6822F0BB
:100B300004020A6094F85C108840A860606D40F080
:100B40000100606594F85C104FF0010808FA01F0AC
:100B5000304208D021684969090604D5A860606D53
:100B600040F00200606594F85C1004208840304238
:100B700008D021680968890704D5A860606D40F035
:100B80000400606594F85C1010208840304218D052
:100B900021680968090714D5A8602068016849031D
:100BA00004D50068000308D5A16C07E00168C905F9
:100BB00003D4016821F008010160216C09B12046CD
:100BC000884794F85C1020208840304231D021685A
:100BD0000968C9062DD5A86094F835000528206855
:100BE000016806D0490347D5006800031DD4616C35
:100BF0001CE021F0160101602068416921F08001AC
:100C00004161206C08B9A06C20B12068016821F016
:100C10000801016094F85C103F208840A86084F8C7
:100C2000349084F83580216D1FE0E16B09B12046D6
:100C30008847606D00282BD0606DC00714D0052058
:100C400084F835002068016821F0010101600098F6
:100C5000401C0090B84203D820680068C007F6D155
:100C600084F8349084F83580E16C002910D001B00C
:100C70002046BDE8F04308470168C905D5D401689E
:100C800021F01001016084F8349084F83580CCE7BD
:100C9000BDE8F883180000202DE9F041044600F07B
:100CA00095F906465CB1002584F83450022084F89A
:100CB00035002068016821F0010101600DE001208C
:100CC000BDE8F08100F082F9801B052805D92020BD
:100CD0006065032084F83500F2E720680068C007EB
:100CE000F0D12268116820480140D4E9010318437B
:100CF000D4E903363343184363691843A36918439F
:100D0000E3691843236A18430843616A042903D13D
:100D1000D4E90B1319430843106020684069666AE0
:100D200020F0070130460E43012704280CD1A06AA9
:100D30000643E06A40B12046FFF78CFE20B1402018
:100D4000606584F83570BAE7206846612046FFF791
:100D50006DFE94F85C203F2191408160656584F8C8
:100D600035700020ACE700003F8010F02DE9F04125
:100D70000446866D90F83400002501280DD001202E
:100D800084F8340094F835700020012F07D084F8DF
:100D9000340002252846BDE8F0810220FBE7022747
:100DA00084F8357060652046FFF77EFE94F85C108D
:100DB0003F208840B0602068016841F01601016062
:100DC0002068416941F080014161206C20B12068B8
:100DD000016841F0080101602068016841F00101EB
:100DE0000160D7E770B5044600F0F0F80546601CD6
:100DF00002D004480078044400F0E8F8401BA04208
:100E0000FAD370BD0C0000202DE9F84FDFF87CB15B
:100E100000224FF001084FF0030A4FF00F090BF1C9
:100E2000040E00BF0B6808FA02F42340A3426ED1FF
:100E30004D68022D01D0122D0ED1D50800EB850C86
:100E4000DCF820505607F70E09FA07F6B5430E698D
:100E5000BE402E43CCF82060066855000F790AFA90
:100E600005FC07F0030726EA0C06AF40374307608E
:100E70004E68012E05D0022E03D0112E01D0122E65
:100E80000ED18668CF6826EA0C06AF4037438760EC
:100E90004668A6430C79C4F300149440344344607C
:100EA000C6688C6826EA0C06AC403443C4604C68C3
:100EB000E40065D5364C256845F4804525602468F6
:100EC00022F0030504F480440094324C2E19D6F825
:100ED000084895072F0F09FA07F5AC432E4DA84295
:100EE00001D1002524E02D4DA84201D101251FE0AC
:100EF0002B4DA84201D102251AE02A4DA84201D16A
:100F0000032515E0284DA84202D1042510E037E062
:100F1000264DA84201D105250AE0254DA84201D160
:100F2000062505E0234DA84201D1072500E008254C
:100F3000BD402543C6F80858DBF800405D464E68C2
:100F40009C43F60300D51C432C60DEF80040754638
:100F50004E689C43B60300D51C432C600B4D0835EE
:100F60002C684E689C43F60200D51C432C60074D4C
:100F70000C352C684E689C43B60200D51C432C608F
:100F8000521C102AFFF44EAFBDE8F88F003C014020
:100F9000443802400030014000000240000402409A
:100FA00000080240000C0240001002400014024001
:100FB00000180240001C024042694A4042617047EA
:100FC0000AB1816170470904FBE7000001488068AD
:100FD000704700000C00002002488168027811442C
:100FE000816070470C0000200B4810B5016841F487
:100FF00000710160016841F480610160016841F4A1
:1010000080710160032000F06DF8002000F006F808
:1010100000F024F8002010BD003C024070B50D4DDA
:1010200004464FF47A712878B1FBF0F00A49096858
:10103000B1FBF0F000F0E0FA48B9102C07D2002222
:101040002146501E00F02EF800206C6070BD01207B
:1010500070BD00000C000020180000200A4808B5F0
:10106000016841F480410160006800F48040009014
:101070000548001F016841F080510160006800F0E0
:101080008050009008BD00004438024000F01F026C
:10109000012191404009800000F1E020C0F80011DA
:1010A00070470000F0B40E4B1B680C46C3F30223DC
:1010B000C3F10705042D00D90425191D072901D204
:1010C000002300E0DB1E012606FA05F1491E21403F
:1010D00099409E40761E16403143F0BC00F075BE2C
:1010E0000CED00E0064900F0070208684FF6FF0328
:1010F000184040EA0220034A10430860704700008D
:101100000CED00E00000FA052DE9F0470E46050061
:1011100065D0DFF81481D8F80000F7B200F00F00B6
:10112000B04207D288F80070D8F8000000F00F0035
:10113000B04254D128683D4C810712D5400703D5F1
:10114000206840F4E05020602878000703D520682C
:1011500040F4604020602068A96820F0F000084357
:1011600020602878C0072DD03049686808390128E8
:1011700012D0022813D0032811D00968890700294A
:101180002DDA216821F0030101432160FFF71EFFE2
:10119000814641F2883A0EE009688903EFE7096861
:1011A0008901ECE7FFF712FFA0EB0901514502D9D5
:1011B0000320BDE8F0872068696800F00C00B0EB00
:1011C000810FEFD1D8F80010404601F00F01B14275
:1011D00007D90770006800F00F00B04201D001206D
:1011E000E7E72878400705D52068E96820F4E05053
:1011F000084320602878000706D52068296920F474
:10120000604040EAC100206000F036F82168084ADA
:10121000C1F30311515CC840064908600020FFF784
:10122000FDFE0020C5E70000003C024008380240F7
:101230009038000818000020044805490068096833
:10124000044AC1F38221515CC84070471800002055
:1012500008380240A03800080448054900680968B9
:10126000044AC1F34231515CC84070471800002065
:1012700008380240A0380008154810B5006810F082
:101280000C02144813D01449042A0FD0082A0ED196
:101290000F4C241F2268236802F03F025B0207D52F
:1012A0002068C0F38810A0FB010106E0084610BDCD
:1012B0002168C1F38811A1FB00010023FEF780FF24
:1012C0002168C1F30141491C4900B0FBF1F010BD98
:1012D000083802400024F40040787D012DE9F84FE1
:1012E000050076D02878DFF8F8B2BE4CC00749D0A8
:1012F000DBF800105846C1F38101012908D00068CD
:10130000C0F3810002280AD1201D0068400206D5E2
:101310002068800336D568680028E2D032E068682B
:10132000B0F5803F10D0B0F5A02F206810D020F489
:1013300080302060206820F4802020606868A0B1A0
:10134000FFF744FE06460CE0206840F48030F4E7E6
:1013500040F480202060F7E7FFF738FE801B642808
:1013600073D820688003F7D50CE0FFF72FFE064600
:1013700005E000BFFFF72AFE801B6428F0D8206834
:101380008003F7D42878DFF8608280074FF00009E7
:101390003ED5DBF80010584611F00C0F09D000685C
:1013A000C0F3810002280BD18D48001F0068400265
:1013B00006D42068800715D5E868012809D111E016
:1013C000E868B8B10120C8F80000FFF7FFFD064645
:1013D00005E002E1FFF7FAFD801B0228C0D8206873
:1013E0008007F7D52068296920F0F80040EAC1009D
:1013F00020600DE0C8F80090FFF7E8FD064604E025
:10140000FFF7E4FD801B02281FD820688007F7D46F
:101410002878000722D5724E744869696C3671B11C
:1014200001210160FFF7D2FD074604E0FFF7CEFD82
:10143000C01B022809D830688007F7D50EE0C0F835
:101440000090FFF7C3FD074605E083E0FFF7BEFD10
:10145000C01B02287ED830688007F7D42878400760
:1014600068D5DFF87CA100270AF1380ADAF8000015
:10147000C0000BD4DAF8001041F08051CAF8001017
:10148000DAF80000012700F080500090584E3068D4
:10149000C00510D4306840F480703060FFF796FDCE
:1014A000009005E0FFF792FD0099401A022851D8FC
:1014B0003068C005F6D54A4EA868683601280FD0B6
:1014C0000528306810D020F001003060306820F02E
:1014D00004003060A868B8B1FFF778FD00900FE015
:1014E000306840F00100F4E740F004003060F7E7B6
:1014F000FFF76CFD0099411A41F28830814264D8AF
:1015000030688007F4D50EE0FFF760FD009007E03B
:10151000FFF75CFD0099411A41F28830814254D8AE
:1015200030688007F4D42FB1DAF8001021F0805130
:10153000CAF80010A869C0B3DBF80010C1F381013C
:1015400002294AD00228484607D0C8F86000FFF7B1
:101550003DFD00E039E005463AE04746C8F8600046
:10156000FFF734FD064604E0FFF730FD801B02283C
:101570002BD820688001F7D4D5E907010843A96A70
:101580001C4A490802EB01416A6A41EA8211084398
:1015900095F82C1040EA01611148001F01600120FC
:1015A0003866FFF713FD054605E014E0FFF70EFD72
:1015B000401B022809D820688001F7D50BE000BF46
:1015C000FFF704FD401B022802D90320BDE8F88F75
:1015D00020688001F4D40020F8E70120F6E700003D
:1015E000083802400038024000004742800E47425F
:1015F000007000400000FFFF10B5401EB0F1807F7A
:1016000001D3012010BD4FF0E02460610F2160176D
:1016100000F0DBFB0020A06107202061002010BD4E
:101620007047704730B590F83820012A20D0012249
:1016300080F83820022380F8393003685C6824F091
:1016400070045C6003685C680D682C435C60036830
:101650009C6824F080049C6003689C6849680C4383
:101660009C6080F83920002180F83810084630BD91
:10167000022030BD10B5040003D094F8390010B139
:1016800007E0012010BD002084F83800204600F05B
:101690000DF8022084F83900211D206800F028FC94
:1016A000012084F83900002010BD000008B5006852
:1016B0000B49884212D10B48016841F002010160D8
:1016C0000068002200F00200009011461D20FFF784
:1016D000E9FCBDE808401D20FFF7D8BC08BD0000AC
:1016E00000040040403802400168CA6842F001022C
:1016F000CA600068016841F0010101600020704784
:1017000070B5044690F83800012817D0012584F8F8
:101710003850022084F839002068826822F077026D
:1017200022F47F4282600868502837D00DDC2028E0
:1017300059D005DC88B3102841D151E0022070BD9A
:10174000302853D040283AD13FE060282ED070286E
:101750000BD0B0F5805F03D0B0F5005F2FD110E063
:101760002068816821F0070115E0CB68D1E90121EB
:10177000206800F01DFC2168886840F077008860D0
:101780001DE0CB68D1E90121206800F011FC206840
:10179000816841F48041816011E01EE0CA684968B7
:1017A000206800F017FC5021206806E0CA684968EC
:1017B000206800F020FC6021206800F003FC84F821
:1017C0003950002084F8380070BDCA684968206824
:1017D00000F000FC40212068EFE700212068ECE7E2
:1017E00010212068E9E720212068E6E73021206801
:1017F000E3E7704770B50446006801694FF00005E3
:10180000C943890715D4C168C943890711D4E91EA2
:10181000016101202076206880698007204602D07F
:10182000FFF7E7FF04E000F098F8204600F096F894
:10183000257620680169C943490717D4C168C9439F
:10184000490713D46FF0040101610220207620685B
:10185000806910F4407F204602D0FFF7CAFF04E001
:1018600000F07BF8204600F079F8257620680169C1
:10187000C943090716D4C168C943090712D46FF0D8
:1018800008010161042020762068C0698007204695
:1018900002D0FFF7AEFF04E000F05FF8204600F052
:1018A0005DF8257620680169C943C90617D4C16867
:1018B000C943C90613D46FF01001016108202076D6
:1018C0002068C06910F4407F204602D0FFF791FFE6
:1018D00004E000F042F8204600F040F82576206849
:1018E0000169C943C90708D1C168C943C90704D1FF
:1018F000891E0161204600F033F820680169C94360
:10190000090609D4C168C943090605D46FF08001EE
:1019100001612046FFF784FE20680169C94349063A
:1019200009D4C168C943490605D46FF0400101617B
:10193000204600F027F820680169C94389060BD4C6
:10194000C168C943890607D46FF0200101612046B0
:10195000BDE87040FFF765BE70BD7047704700007E
:1019600000680549884206D10449012008704103F6
:101970000348FFF721BB704700040040000000202F
:10198000000C02407047704770B50268044610684A
:10199000D168536910F00F0F50D003F0010501F426
:1019A000907635435DD0C20705D0CA0503D5E26BFA
:1019B00042F00102E263420705D5DA0703D0E26B89
:1019C00042F00202E263820705D5DA0703D0E26B38
:1019D00042F00402E263020705D5DA0703D0E26BA6
:1019E00042F00802E263E26B002A33D0800604D59D
:1019F000880602D5204600F09AFB20684069E16B1A
:101A0000C0F38010090700D428B3204600F078FB0B
:101A10002068416949061AD5416921F040014161B8
:101A2000606BA0B11B490165606BFFF753F800289C
:101A300010D0606B016DBDE870400847830610D57B
:101A40008B060ED52046BDE8704000F070BB2046E6
:101A5000FFF799FF70BD2046FFF795FF0020E06378
:101A600070BD030606D50B0604D52046BDE87040C0
:101A700000F0FABC4006F3D54806F1D5D1682046FF
:101A800021F04001D160202184F8391000F098F94C
:101A900070BD00002920000870B5040004D094F83F
:101AA0003900002510B106E0012070BD84F83850DF
:101AB000204600F023F8242084F839002068C1680B
:101AC00021F40051C160204600F078FB20680169D4
:101AD00021F4904101612068416921F02A014161AE
:101AE0002068C16841F40051C160E563202084F89A
:101AF000390084F83A00002070BD00002DE9F04F55
:101B000087B0064614216846FEF7A4FB5B48DFF861
:101B100068811038D6F800C00024584902220123F9
:101B20000325DFF85CE107154FF0080A4FF0006964
:101B3000C44538D1D1F800C04CF4002CC1F800C025
:101B4000096801F400210591016841F00401016078
:101B50000068694600F004000590A8028DE82D0495
:101B60007046FFF751F9484D4648E5E80209402024
:101B700091C5C00245F81449AC61C5E90740424827
:101B80006C62FFF789F808B1FEF7A3FF3563002206
:101B900011463420AE63FFF785FA3420FFF776FA5A
:101BA00007B0BDE8F08FDFF8E4804FF4807BC445D8
:101BB0002CD1D1F800C04CF4003CC1F800C0096839
:101BC00001F400310591016841F0010101600068F4
:101BD000694600F0010005900C208DE82D000720DB
:101BE00004902B48FFF710F926482A4D183028603A
:101BF000C5E90194C5E903476C61C5E9064B2C6250
:101C000028466C6230E07563AE63C9E722498C45B3
:101C1000C6D11A49091DD1F800C04CF0200CC1F8FA
:101C200000C0096801F020010591016841F004013C
:101C300001600068694600F004000590C0208DE84E
:101C40002D047046FFF7E0F8154D14482860800514
:101C5000C5E90104C5E903476C61C5E9064B4FF4CA
:101C60000030C5E908042846FFF716F80028CAD056
:101C7000FEF72FFFC7E70000004C0040403802404D
:101C80000008024070600240183901200044004002
:101C9000000002407839012000140140286402400D
:101CA000D8390120F8B5044690F83A0020283CD1F4
:101CB000C1B3BAB394F83800012836D0012084F8B3
:101CC0003800A162A2850025E563222084F83A004D
:101CD000636B1748D863636B16481864636B1648C8
:101CE000D864606B134605650846666B216802463A
:101CF0003046091DFFF73AF82068016841680091F5
:101D000084F83850C16841F48071C160206841692D
:101D100041F0010141612068416941F040014161A8
:101D20000020F8BDFFE70120FBE70220F9E70000F3
:101D300083200008BF200008392000087047704742
:101D400070B5044690F83900202830D169B362B3E9
:101D500094F8380001282AD0012084F83800216244
:101D6000A284E2840025E563212084F83900236BF6
:101D70001048D863236B10481864236B0F48D8644D
:101D8000206B134605652668206B321DFEF7EEFFBB
:101D900021686FF04000086084F83850206841697D
:101DA00041F080014161002070BD012070BD022022
:101DB00070BD0000C9200008F72000083920000885
:101DC00070477047FEE7FEE770470907090E0028D5
:101DD00006DA00F00F0000F1E02080F8141D7047D3
:101DE00000F1E02080F80014704770477047000051
:101DF00010B50446FEF739FA214682B2BDE810401C
:101E00000148FFF79DBF00004C3A0120FFF7E4B8FE
:101E100030B593B030216846FEF71CFA14210CA8A7
:101E2000FEF718FA18480025016841F0805101605A
:101E3000006800F0805011901448016841F480411E
:101E400001600068022400F480401190012003909A
:101E500010200490009406940820CDE907505420E7
:101E6000CDE9090404200B906846FFF737FA0CA966
:101E70000F2081E83100E002CDE90F0502210CA816
:101E8000FFF742F913B030BD403802400070004007
:101E90001048016841F4700101600F48016841F089
:101EA000010101600C4A00210832116002680B4BED
:101EB0001A400260031D0A4A1A60026822F4802256
:101EC000026005480C3001600249580680390860FC
:101ED0007047000088ED00E000380240FFFFF6FE8A
:101EE000103000240148FFF785BC0000705A002024
:101EF000F0B50268234B244D244E254F254C4FF05E
:101F0000804C984209D0604507D0A84205D0B04225
:101F100003D0B84201D0A04204D122F0700E4A682A
:101F200042EA0E0298421BD0604519D0A84217D051
:101F3000B04215D0B84213D0A04211D0164DA842DD
:101F40000ED0164DA8420BD0154DA84208D0154D05
:101F5000A84205D0144DA84202D0144DA84203D186
:101F600022F44075CA682A4302608A68C2620A681D
:101F70008262984201D0A04201D109690163012126
:101F80004161F0BD00000140000400400008004035
:101F9000000C0040000401400040014000440140AA
:101FA0000048014000180040001C00400020004094
:101FB00010B5846842EA032224F47F440A43224392
:101FC000826010BD826822F070020A4342F007016D
:101FD0008160704710B5036A046A24F0010404624A
:101FE000846924F0F00444EA021423F00A020A434C
:101FF0008461026210BD10B5036A23F0100303620E
:102000008369046A23F4704343EA023224F0A00394
:1020100043EA01118261016210BD00000148FFF72F
:10202000B3BC00004C3A012010B5806B0021C18583
:10203000C184FFF7A8FC10BD70B5846B20684069AF
:1020400094F83910C0F3C0100025212904D118B12B
:10205000E584204600F062F82068406994F83A1060
:10206000C0F38010222904D118B1E585204600F084
:1020700047F8E06B40F01000E0632046FFF783FC78
:1020800070BD10B50146806B09680968C90513D495
:102090000021C1850168CA6822F48072CA600168A3
:1020A0004A6922F001024A6101684A6922F040024D
:1020B0004A61202180F83A10FFF740FE10BD10B5AC
:1020C000806BFFF73CFE10BD10B50146806B0968C0
:1020D0000968C9050CD40021C18401684A6922F04D
:1020E00080024A610068C16841F04001C16010BDD2
:1020F000FFF766FE10BD10B5806BFFF762FE10BDE6
:102100000168CA6822F49072CA6001684A6922F0C4
:1021100001024A61202180F83A1070470168CA68BC
:1021200022F0C002CA60202180F83910704710B533
:1021300090F83A10222901D0022010BD8168B1F533
:10214000805F11D00169002901681FD0496801F042
:102150007F03816A4A1C82620B70C18D491E09048B
:10216000090CC18518D026E00269816A002A02683C
:10217000526805D0D2B20A80816A491C8162ECE7BC
:10218000C2F308020A80816A891CF7E74A68816AFB
:102190004B1C83620A70E0E70168CA6822F49072FF
:1021A000CA6001684A6922F001024A61202180F870
:1021B0003A10FFF7C3FD002010BD00002DE9F041EB
:1021C00004460068016921F44052E168114301614D
:1021D0002168C86849F20C6290432369A268E569E6
:1021E0001A4363692B431A430243CA602168486952
:1021F00020F44072A06910434861E1696425B1F59B
:10220000004F9748974A21684FF032083FD09142DB
:1022100001D081427CD1FFF71FF800EBC00101EB38
:10222000001061688900B0FBF1F6FFF715F800EBCC
:10223000C00101EB001061688900B0FBF1F0B0FB58
:10224000F5F06FF01801484306EB800108EB011030
:10225000B0FBF5F000F0F006FEF7FEFF00EBC0016A
:1022600001EB001061688900B0FBF1F0B0FBF5F004
:1022700006EB0016FEF7F0FF00EBC00101EB0010CB
:1022800061688900B0FBF1F7FEF7E6FFD2E091420A
:1022900001D081423DD1FEF7DFFF00EBC00101EB31
:1022A000001061684900B0FBF1F0B0FBF5F00601E9
:1022B000FEF7D2FF00EBC00101EB0010616849009E
:1022C000B0FBF1F7FEF7C8FF00EBC00101EB001017
:1022D00061684900B0FBF1F0B0FBF5F06FF0180158
:1022E000484307EB800108EBC100B0FBF5F000F0BC
:1022F000F80006EB4006FEF7AFFF00EBC00101EB74
:10230000001061684900B0FBF1F7FEF7A5FF3CE063
:1023100055E0FEF791FF00EBC00101EB0010616892
:102320004900B0FBF1F0B0FBF5F00601FEF784FFC9
:1023300000EBC00101EB001061684900B0FBF1F750
:10234000FEF77AFF00EBC00101EB00106168490065
:10235000B0FBF1F0B0FBF5F06FF01801484307EB6C
:10236000800108EBC100B0FBF5F000F0F80006EBCF
:102370004006FEF761FF00EBC00101EB0010616851
:102380004900B0FBF1F7FEF757FF00EBC00101EB8E
:10239000001061684900B0FBF1F0B0FBF5F06FF0A0
:1023A0001801484307EB800108EBC100B0FBF5F0D2
:1023B00000F00700216830448860BDE8F081FEF736
:1023C0003BFF00EBC00101EB001061688900B0FB2E
:1023D000F1F6FEF731FF00EBC00101EB0010616880
:1023E0008900B0FBF1F0B0FBF5F06FF01801484345
:1023F00006EB800108EB0110B0FBF5F000F0F006F1
:10240000FEF71AFF00EBC00101EB001061688900C4
:10241000B0FBF1F0B0FBF5F006EB0016FEF70CFF99
:1024200000EBC00101EB001061688900B0FBF1F71F
:10243000FEF702FF00EBC00101EB001061688900AC
:10244000B0FBF1F0B0FBF5F06FF01801484307EB7B
:10245000800108EB0110B0FBF5F000F00F00A9E7D8
:10246000001401400010014090F83910212901D0DA
:10247000022070478168B1F5805F016A0BD04A1C69
:102480000262026809785160C18C491E0904090C76
:10249000C1840ED017E009880268C1F308015160B9
:1024A00001690029016A02D0491C0162ECE7891C1C
:1024B000FBE70168CA6822F08002CA600068C16850
:1024C00041F04001C16000207047FEE703B401986D
:1024D0004100009850EAC12018BF04204A0D18BFDF
:1024E00040F0010040F2FF72B2EB515F08BF40F0D4
:1024F0000200012808BF052002B07047000000005C
:1025000010B52F499FED2C1B2DED020B84B00598C3
:1025100020F000408842D8BF9DED040B2DDD2949F5
:10252000884209D1049840B94FF0010000F014FD31
:1025300000F0E2FC06B010BD05DB9DED040B00F0E1
:10254000CFFC06B010BD68469DED040B00F0E0F82E
:1025500010F0030004BF9DED021B9DED000B0CD09D
:1025600001280ED09DED021B9DED000B022817D017
:10257000012000F01DFC06B010BD00F0E5FA06B029
:1025800010BD9DED021B9DED000B012000F010FC25
:1025900051EC100B81F0004106B041EC100B10BD66
:1025A00000F0D2FA51EC100B81F0004106B041EC82
:1025B000100B10BD00000000000000000000000033
:1025C000FB21E93F0000F07F10B52F499FED2C1B48
:1025D0002DED020B84B0059820F000408842DCBF4E
:1025E00000209DED040B32DD2849884209D1049872
:1025F00040B94FF0010000F0AFFC00F07DFC06B0E8
:1026000010BD05DB9DED040B00F06AFC06B010BDAB
:1026100068469DED040B00F07BF810F0030011D02C
:10262000012818D09DED021B9DED000B02281AD049
:1026300000F08AFA51EC100B81F0004106B041EC39
:10264000100B10BD9DED021B9DED000B012000F055
:10265000AFFB06B010BD9DED021B9DED000B00F021
:1026600073FA06B010BD012000F0A2FB51EC100B74
:1026700081F0004106B041EC100B10BD00000000DD
:102680000000000000000000FB21E93F0000F07F97
:1026900000B52DED048BB0EE409AF0EE609A83B059
:1026A00051EC190BFEF73BF841EC180B18EE100A31
:1026B00018EE901A8DED008B002818BF01200843FA
:1026C00020F00040C0F17F6000F1E040C00F14D066
:1026D00019EE101A19EE900A8DED009B002918BF13
:1026E0000121084320F00040C0F17F6000F1E0408C
:1026F000C00F04BF012000F02FFCB0EE480A03B069
:10270000F0EE680ABDEC048B00BD00000000000084
:102710002DE9F14F04462DED020B2DED088B8AB00B
:102720009FEDE70B80ED020B139EE74826F0004576
:1027300085420ADC9DED120B002084ED000B0AB0EF
:10274000BDEC088B03B0BDE8F08FE0489FEDE0AB37
:102750009FEDE1BBA84247DDE14F9FEDE39B9FED7D
:10276000E48B9DED120B53EC1A2B51EC100B002E49
:102770001CDDFDF722FE41EC100BBD4208D053ECEE
:102780001B2B51EC100BFDF718FEC4E900010BE008
:1027900053EC192B51EC100BFDF70FFE53EC182BDB
:1027A000FDF70BFEC4E900010120C8E7FDF764FD59
:1027B00041EC100BBD4208D053EC1B2B51EC100B1D
:1027C000FDF75AFDC4E900010BE053EC192B51EC65
:1027D000100BFDF751FD53EC182BFDF74DFDC4E92F
:1027E00000014FF0FF30AAE7C348A84279DB9DED16
:1027F000120B51EC100B00F0B5FB41EC180B9FEDE8
:10280000C00B53EC102BFDF7DEFD9FEDBF1B53EC0F
:10281000112BFDF731FDFDF7D5FE0746FDF7B4FEA0
:1028200041EC190B53EC1A2BFDF7CDFD53EC182B93
:10283000FDF7C6FD41EC180B53EC1B2B51EC190BAB
:10284000FDF7C1FDDFF8C8A241EC100B4FEA1558A7
:102850000125FA4453EC102B51EC180BFDF7ADFD9C
:10286000032DC4E900013DD0C1F30A5005EB451129
:10287000A8EB00001139814234DA0AEB051BB0EEF7
:1028800048AA9BED000BF0EE68AA53EC102B51EC1C
:10289000190BFDF798FD41EC1B0B51EC1A0B53EC97
:1028A0001B2BFDF78AFD41EC180B51EC1A0B53EC76
:1028B000182BFDF782FD53EC1B2BFDF77EFD9BEDE6
:1028C000020B41EC1A0B53EC102B51EC190BFDF7DA
:1028D0007AFD53EC1A2BFDF770FD41EC100B6D1CCB
:1028E000B8E70EE0002EA8BF3846BFF628AF94ED3B
:1028F000000B51EC100B81F00041C4E9000178425B
:102900001DE7C6F3130040F4801EC6F30A50A0F280
:10291000F530471100F01F05C5F12000DDF848B083
:1029200008900020069007900520EC467949002D7C
:1029300007EB0002794408BF51F8221009D051F882
:10294000223001EB8201AB404A68089922FA01F17A
:102950001943A1FB0E26A1FB0B131A449A4234BF64
:102960000123002303EB06080CEB8003D3E901A647
:102970000E448E4234BF0121002192448A4411B199
:10298000924502D903E0924501D2012100E00021E5
:10299000C3E901A641444CF82010011EA0F101003A
:1029A000C4DC029800F10050850F0298DDE903674E
:1029B0008000DDF81480FDF7E7FD41EC1A0B30468E
:1029C000FDF7F3FD9FED541B53EC112BFDF7FBFCC2
:1029D00041EC1B0B3846FDF7E8FD9FED511B53EC16
:1029E000112BFDF7F0FC41EC180B4046FDF7DDFD27
:1029F0009FED4D1B53EC112BFDF7E5FC41EC190B42
:102A000051EC180B53EC192BFDF736FC53EC1B2B38
:102A1000FDF732FC53EC1A2BFDF72EFCCDE9080133
:102A2000002008909DED080B53EC1A2B51EC100B75
:102A3000FDF7C3FC53EC1B2BFDF7BFFC53EC182B2D
:102A4000FDF7BBFC53EC192BFDF7BAFC9FED381BCF
:102A500053EC112BFDF7B7FC9FED370B41EC180B36
:102A600053EC102B9DED080B51EC100BFDF7ABFC5C
:102A700053EC182BFDF700FC9FED310B41EC180BCC
:102A800053EC102B9DED080B51EC100BFDF79BFC4C
:102A900053EC182BFDF7F0FB41EC100B139810F0E2
:102AA000004F06D06D4251EC100B81F0004141EC1B
:102AB000100B284684ED000B41E6000000000000EA
:102AC0000000000000000000FB21E93F7CD902402B
:102AD00000004054FB21F93F3163621A61B4D03DDC
:102AE000FB21F93F000000000000601A61B4D03DF6
:102AF0007370032E8A19A33BFB21394100000000AB
:102B000083C8C96D305FE43F000000000000E03F73
:102B100082100000D00F0000000000000000103EF6
:102B2000000000000000103C000000000000103A0F
:102B3000182D4454FB21F93D3326A611460B113CB8
:102B400000000054FB21F93D10B52DED040B2DEDD7
:102B5000088B82B0B0EE419AF0EE619A0B9820F0AB
:102B600000449FED4BABB4F1795F11DA9DED0A0B98
:102B700051EC100BFDF726FD002801BFB0EE4A0A0C
:102B8000F0EE6A0A02B0BDEC088B04BF04B010BDC1
:102B90009DED0A0B53EC102B51EC100BFDF713FCC1
:102BA00041EC180B3C480621B0EE480AF0EE680AEA
:102BB000784400F081F853EC182B51EC100BFDF722
:102BC00002FC9DED0A0B41EC1B0B53EC192B51EC55
:102BD000100BFDF7F8FB41EC190B53EC1B2B51ECE0
:102BE000180BFDF7F0FB53EC192BFDF7E6FB9FEDFF
:102BF0002C0B41EC190B53EC102B51EC180BFDF77F
:102C0000E2FB41EC100B2848844210DA53EC192BFC
:102C100051EC100BFDF7D1FB53EC1A2BFDF7D0FB59
:102C200041EC100B02B0BDEC088B04B010BD1F4886
:102C3000A042BCBF9FED1E1B8DED001B06DBA4F563
:102C400000100190002000909DED001B51EC100B36
:102C500053EC112BFDF7B1FB9DED000B41EC180B74
:102C600053EC102B51EC1A0BFDF7A7FB41EC1A0BA0
:102C700053EC192B51EC180BFDF79FFB53EC1A2B5F
:102C8000FDF79EFB41EC100BCCE7000000000000BC
:102C9000000000000000F03FF40C00000000000005
:102CA000000000000000E03F3333D33F0000E93F65
:102CB000000000000000D23F70B504462DED028BED
:102CC0004D1E00EBC500B0EE408AF0EE608A90ED3C
:102CD000000B35F0060017D053EC182B51EC100BFD
:102CE000FDF771FB41EC100B6D1E04EBC50090ED80
:102CF000001B51EC100B53EC112BFDF7BDFA41EC0E
:102D0000100B35F00600E7D1022D36D0042D1CD073
:102D1000062D1CBFBDEC028B70BD53EC182B51EC83
:102D2000100BFDF750FB94ED0A1B53EC112BFDF734
:102D3000A3FA53EC182BFDF746FB94ED081B53EC5C
:102D4000112BFDF799FA41EC100B53EC182B51ECB9
:102D5000100BFDF738FB94ED061B53EC112BFDF720
:102D60008BFA53EC182BFDF72EFB94ED040B53EC70
:102D7000102BFDF781FA41EC100B53EC182B51ECA2
:102D8000100BFDF720FB94ED021B53EC112BFDF70C
:102D900073FA53EC182BFDF716FB94ED001B53EC64
:102DA000112BFDF769FABDEC028B41EC100B70BDE5
:102DB00031B504462DED040B2DED0A8BB0EE41BA72
:102DC000F0EE61BA0B989DED0A0B20F00040B0F1D7
:102DD000795F0DDA51EC100BFFF778FB042808BF80
:102DE00000F09AF89DED0A0BBDEC0A8B05B030BDE2
:102DF00053EC102B51EC100BFDF7E5FA41EC180BDE
:102E00009DED0A0B53EC182B51EC100BFDF7DBFA80
:102E100041EC190B2C48B0EE480AF0EE680A052187
:102E20007844FFF749FF9FED2ACBB0EE40AAF0EEC1
:102E300060AA9CB353EC1C2B51EC190BFDF7C3FAA1
:102E400041EC1C0B53EC1A2B51EC190BFDF7BBFAA0
:102E50009FED210B41EC190B53EC102B51EC1B0B8C
:102E6000FDF7B1FA53EC192BFDF7A7FA53EC182B29
:102E7000FDF7A9FA53EC1B2BFDF79FFA53EC1C2B23
:102E8000FDF79BFA9DED0A1B53EC112BFDF798FA09
:102E9000BDEC0A8B05B041EC100B30BDFFE753ECE5
:102EA0001A2B51EC180BFDF78EFA53EC1C2BFDF787
:102EB000E3F953EC192BFDF786FA9DED0A1B53EC51
:102EC000112BFDF7D9F9E3E77C0B000000000000AF
:102ED000495555555555C5BF000000000000E03F5D
:102EE00010B553EC102B51EC100BFDF7C5F941EC6C
:102EF000100B10BD000000009FED050B10B553EC4A
:102F0000102B51EC100BFDF7D0FA41EC100B10BD5B
:102F100000000000000000009FED050B10B553EC11
:102F2000102B51EC100BFDF74EFA41EC100B10BDBD
:102F3000000000000000001002E008C8121F08C1D5
:102F4000002AFAD170477047002001E001C1121F2A
:102F5000002AFBD17047000001490860704700005B
:102F60001C00002082B0CDE9000121F0004001905A
:102F70009DED000B02B051EC100B70472DE9F041B4
:102F8000CEB00F46044600252E46302142A8FDF75C
:102F900061F94FF48478424635496846FDF741F9B6
:102FA00026606660A660E66026616661A661E661ED
:102FB000C4F8206005EB450004EB0010302242A964
:102FC0002830FDF72EF96D1C142DF3DB6FB10025B1
:102FD00005EB451007EBC00042466946FDF721F9B5
:102FE0006D1C202DF4DBC4F830762020C4F8A066D8
:102FF000C4F828069FED1F0B0020C0EB001202EB67
:103000008202002104EB42025318491C83F8A46693
:103010009629F9DB04EBC00202F5E05102F5C0523B
:1030200081ED1A0B401C82EDDA0B2028E5DB04F55C
:10303000E0504FF0FF3180ED5A0B04F58050C0F89E
:10304000786DC0F8706DC0F8846D00F55760C0E908
:103050000361002040F6B831221802F58052401C6E
:1030600082F8886D8842F7DB4EB0BDE8F081000041
:10307000C03400080000000000000000FDF7B4FFAD
:10308000FEF7C6FEFDF7FAFBFDF7CAFBFDF744FCB1
:10309000124800F09DF91248D0F8580CFDF77CFC5E
:1030A00010490A2201F15400FEF7FCFD0D490B48BE
:1030B0000A220A318038FEF7F5FD0B4C4FF47A7581
:1030C0000021625C521C6254491C0A29F9DB07A0EA
:1030D000FEF78EFE2846FDF785FEF1E7B05A002088
:1030E000B0EA0020383A01200100002078696E2003
:1030F0006368616F206361632062616E206461793F
:10310000206C612031207374720A000070B50D4686
:103110002DED0A8B044690ED000BFFF755FAB0EE4B
:10312000409AF0EE609A94ED000BFFF7E9F9B0EEEB
:1031300040CAF0EE60CA94ED020BFFF745FAB0EE1C
:1031400040BAF0EE60BA94ED020BFFF7D9F99FEDAB
:103150002E1BB0EE40AAF0EE60AA53EC192B51ECF6
:10316000110BFDF730F953EC192BFDF72CF99FEDFE
:10317000281B53EC112BFDF723F941EC100BFFF743
:1031800087FA53EC102B9FED240B51EC100BFDF73D
:103190008CF994ED040B41EC180B53EC102BFDF75C
:1031A0006BF853EC1C2BFDF70EF953EC1A2BFDF7C3
:1031B0000AF9C5E9000194ED040B51EC180B53EC2E
:1031C000102BFDF759F853EC1C2BFDF7FCF853ECD2
:1031D0001B2BFDF7F8F89FED120BC5E9020153EC2C
:1031E000182B51EC100BFDF7EEF894ED041B53EC8B
:1031F000112BFDF741F853EC192BFDF7E4F8C5E965
:103200000401BDEC0A8B70BDF094FEF1906B7B3F26
:10321000000000000000F03F00000040A6545841AC
:10322000D6021CDE28C9EF3F2DE9F04F044600F11D
:10323000B80A00F5E87742F6180004EB000B42F6F6
:10324000300004EB000843F2847026182DED028B49
:1032500043F67030A5B00D464FF000094FF4DC7214
:103260002044FCF7DEFFD5F88800E8B309202030C1
:10327000C4F8A800D5F88800B8B30920C4F8AC0099
:1032800095ED680B9FED4E8B51EC100B53EC182B0A
:10329000FDF799F8CDE91E0195ED6A0B53EC182B5B
:1032A00051EC100BFDF78FF8CDE9200195ED6C0B7B
:1032B00004F178018DED220B1EA8FFF727FF0320F4
:1032C0009FED410B04EBC001401C81ED1E0B062855
:1032D000F8DB002004EBC001401C81ED040B062844
:1032E000F8DB84ED160B01E00CE00DE0C4F8009073
:1032F000C4E90199C4F80C9000204A4684ED2C0BD7
:10330000014618E00320B2E70320B7E70AEBC0024A
:10331000B0EE401A82ED000B0022F0EE601A05E0DC
:1033200007EBC103491C83ED001B521CD4F8A830E5
:103330009342F5DC401CD4F8A8208242E6DC002051
:10334000024614E00BEBC001B0EE401A81ED000B19
:103350000021F0EE601A05E008EBC203491C83ED82
:10336000001B521CD4F8AC308B42F5DC401CD4F866
:10337000AC108142E6DC4FF45E504F4640F80490BA
:1033800042F678005FF0000540F80490C5EB0510A8
:1033900004EBC0007822694600F52250FCF741FF9B
:1033A0006D1C202DF2DB00204FF47A713754401C45
:1033B0008842FBDB25B0BDEC028BBDE8F08F00003E
:1033C000399D52A246DF913F00000000000000003E
:1033D0002DE9F047C2B004464FF484773A463149AC
:1033E0006846FCF71EFF00252F492046FFF71CFF0B
:1033F00004F540502D49C0F8381DC0F82C5DC0F8C8
:10340000285DC0F8345D01F6B831C0F8305DC0F811
:103410003C1DA1F658406067254904F57550FFF73B
:10342000ADFD244904F5CD40FFF7A8FD48F68070B6
:1034300020440026056445648564C56448F6D07060
:10344000BA46055104F510441B48C4F8D8554FF04E
:103450003809C4F8E80B00BFD4F8E80B06EB4617B0
:1034600000EBC70052466946FCF7DBFED4F8E81BC8
:1034700009EBC7000A18761C1560C2E90155D56032
:10348000D4F8E80B2946402E00F83750E4DB402002
:10349000C4F8E00B0420C4F8580CC4F85C0C42B02B
:1034A000BDE8F08780370008C8350008C00000205C
:1034B00018F7002018180120301800200000000024
:1034C00000000000FFFFFFFFFFFFFFFF0000000004
:1034D00000000000000000000000000000000000EC
:1034E00000000000000000000000000000000000DC
:1034F00000000000000000000000000000000000CC
:1035000000000000000000000000000000000000BB
:1035100000000000000000000000000000000000AB
:10352000000000000000000000000000000000009B
:10353000000000000000000000000000000000008B
:10354000000000000000000000000000000000007B
:10355000000000000000000000000000000000006B
:10356000000000000000000000000000000000005B
:10357000000000000000000000000000000000004B
:10358000000000000000000000000000000000003B
:10359000000000000000000000000000000000002B
:1035A000000000000000000000000000000000001B
:1035B000000000000000000000000000000000000B
:1035C00000000000000000000200000000000000F9
:1035D000010000000100000065732D3852C1D03F8A
:1035E00000000000000000000000000000000000DB
:1035F0000000000000003E400000000000004440C9
:1036000000000000000044400000000000004440B2
:1036100000000000000044400000000000004440A2
:103620000000000000004440000000000000444092
:103630000000000003000000010000000500000081
:10364000000000000A00000001000000010000006E
:103650000000000000000000010000000000000069
:10366000000000000000000000000000000000005A
:1036700000000000000000000000000000005940B1
:103680000000000000005940FA7E6ABC7493683F55
:10369000FA7E6ABC7493683F0000000000000000DE
:1036A000000000000000F03F0000000000003E406D
:1036B000B81E85EB51B89E3F333333333333D33F9A
:1036C0002D431CEBE2361A3FFCA9F1D24D62503F6C
:1036D0002D431CEBE2361A3F9A9999999999B93F73
:1036E0007B14AE47E17A843F956479E17FFD953D97
:1036F00000000000000008401EA7E8482EFFEF3F32
:103700009A9999999999C93F00000000000000001A
:1037100000000000000000000000000000000000A9
:103720009A9999999999A93F0000000000003E409C
:103730000000000000003E400000000000003E408D
:103740000000000000000000000000000000000079
:103750000000000000000000000000000000000069
:103760000000000000000000530BA15AAF8B254061
:10377000FAEDEBC039AA5A40295C8FC2F5A82E4059
:1037800000000000FFFFFFFFFFFFFFFF0000000041
:103790000000000000000000000000000000000029
:1037A0000000000000000000000000000000000019
:1037B0000000000000000000000000000000000009
:1037C00000000000000000000000000000000000F9
:1037D00000000000000000000000000000000000E9
:1037E00000000000000000000000000000000000D9
:1037F00000000000000000000000000000000000C9
:1038000000000000000000000000000000000000B8
:1038100000000000000000000000000000000000A8
:103820000000000000000000000000000000000098
:103830000000000000000000000000000000000088
:103840000000000000000000000000000000000078
:103850000000000000000000000000000000000068
:103860000000000000000000000000000000000058
:103870000000000000000000000000000000000048
:1038800000000000000000000006101600061016E0
:103890000000000000000000010203040607080900
:1038A00000000000010203044C5555555555A53F35
:1038B0007751C1166CC156BF9015CB19A001FA3EC5
:1038C000AD529C804F7E92BEC4B1B4BD9EEE213EEF
:1038D000D43888BEE9FAA8BD00004054FB21F93F66
:1038E0003163621A61B4D03D0000601A61B4D03D0A
:1038F0007370032E8A19A33B0000002E8A19A33B84
:10390000C14920259A837B39000000000000000097
:103910006E83F9A22915444ED15727FCC0DD34F53A
:10392000999562DB4190433CAB6351FE61C5BBDEC0
:103930003A6E24B7E0D24D42EA2E49061C92D109D4
:103940001CEB1DFE3EA729B1F53582E88444BB2E51
:1039500026709CE9417E5FB439D69139F43953839E
:103960008B5F849C3B28F9BDFF97F81F0F9805DEFD
:103970008B112FEF1F6D0A5ACF7E366DB709CB27FB
:10398000663F464F2DEA5F9EC7BA27757BF1E5EB90
:10399000F739073DEA92528AB15FFB6B085D8D1FD4
:1039A000A6F810111111813FD561C119A0012ABFDC
:1039B0007DFEB157E31DC73EEB9C2B8AE6E55ABE60
:1039C0007CD5CF5A3AD9E53DE839000800000020FF
:1039D00018F70000E4070008EC3B000818F7002087
:1039E000B8470000482F00084E00010203040506F6
:1039F0000708090A0001921003FF24F401FF01FFE8
:103A000001FF01FF01FF01FF01FF01FF01FF01FFB6
:103A100001FF01FF01FF01FF01FF01FF01FF01FFA6
:103A200001FF01FF01FF01FF01FF01FF01FF01FF96
:103A300001FF01FF01FF01FF01FF01FF01FF01FF86
:103A400001FF01FF01FF01FF01FF01FF01FF01FF76
:103A500001FF01FF01FF01FF01FF01FF01FF01FF66
:103A600001FF01FF01FF01FF01FF01FF01FF01FF56
:103A700001FF01FF01FF01FF01FF01FF01FF01FF46
:103A800001FF01FF01FF01FF01FF01FF01FF01FF36
:103A900001FF01FF01FF01FF01FF01FF01FF01FF26
:103AA00001FF01FF01FF01FF01FF01FF01FF01FF16
:103AB00001FF01FF01FF01FF01FF01FF01FF01FF06
:103AC00001FF01FF01FF01FF01FF01FF01FF01FFF6
:103AD00001FF01FF01FF01FF01FF01FF01FF01FFE6
:103AE00001FF01FF01FF01FF01FF01FF01FF01FFD6
:103AF00001FF01FF01FF01FF01FF01FF01FF01FFC6
:103B000001FF01FF01FF01FF01FF01FF01FF01FFB5
:103B100001FF01FF01FF01FF01FF01FF01FF01FFA5
:103B200001FF01FF01FF01FF01FF01FF01FF01FF95
:103B300001FF01FF01FF01FF01FF01FF01FF01FF85
:103B400001FF01FF01FF01FF01FF01FF01FF01FF75
:103B500001FF01FF01FF01FF01FF01FF01FF01FF65
:103B600001FF01FF01FF01FF01FF01FF01FF01FF55
:103B700001FF01FF01FF01FF01FF01FF01FF01FF45
:103B800001FF01FF01FF01FF01FF01FF01FF01FF35
:103B900001FF01FF01FF01FF01FF01FF01FF01FF25
:103BA00001FF01FF01FF01FF01FF01FF01FF01FF15
:103BB00001FF01FF01FF01FF01FF01FF01FF01FF05
:103BC00001FF01FF01FF01FF01FF01FF01FF01FFF5
:103BD00001FF01FF01FF01FF01FF01FF01FF01FFE5
:0C3BE00001FF01FF01FF01FF01FF01EEEA
:040000050800018965
:00000001FF
