:020000040800F2
:10000000000600209D0100080B12000839110008AD
:1000100009120008A9020008751600080000000077
:100020000000000000000000000000002F12000887
:1000300075030008000000002D12000831120008AE
:10004000B7010008B7010008B7010008B7010008B0
:10005000B7010008B7010008B7010008B7010008A0
:10006000B7010008B7010008B7010008B701000890
:10007000B7010008B7010008B7010008AD02000889
:10008000B9020008B7010008B7010008B70100086D
:10009000B7010008B7010008B7010008B701000860
:1000A000B7010008B7010008B7010008B701000850
:1000B000B7010008B7010008B7010008B701000840
:1000C000B7010008B7010008B7010008B701000830
:1000D000B7010008B7010008B7010008B701000820
:1000E000B7010008B7010008B7010008B701000810
:1000F000B7010008B7010008B7010008B701000800
:10010000B7010008B7010008B7010008B7010008EF
:10011000B7010008B7010008B7010008B7010008DF
:10012000B7010008C5020008B7010008B7010008C0
:10013000B7010008B7010008B7010008B7010008BF
:10014000B7010008B7010008B7010008B7010008AF
:10015000B7010008B7010008B7010008B70100089F
:10016000B7010008B7010008B7010008B70100088F
:10017000B7010008B7010008B7010008000000003F
:10018000B7010008B7010008DFF80CD000F07AF8DA
:1001900000480047951600080006002006488047E2
:1001A00006480047FEE7FEE7FEE7FEE7FEE7FEE75C
:1001B000FEE7FEE7FEE7FEE7B5120008890100084A
:1001C0002DE9F05F0546002092469B46884606468C
:1001D000814640241BE0284641464746224600F01F
:1001E00041F853465A46C01A914110D31146184659
:1001F000224600F028F82D1A67EB01084F462246E8
:100200000120002100F01FF817EB00094E41201ECD
:10021000A4F10104DFDC484631462A464346BDE8E6
:10022000F09FD2B201E000F8012B491EFBD27047CB
:100230000022F6E710B513460A4604461946FFF7B2
:10024000F0FF204610BD202A04DB203A00FA02F11C
:10025000002070479140C2F1200320FA03F31943B4
:1002600090407047202A04DB203A21FA02F0002156
:10027000704721FA02F3D040C2F1200291400843B6
:1002800019467047064C074D06E0E06840F0010350
:1002900094E8070098471034AC42F6D3FFF778FF94
:1002A0005817000878170008FEE70000014800F022
:1002B00063B80000DC000020014800F05DB80000D9
:1002C0003C010020014800F057B800009C010020CC
:1002D00001681823CAB2103AB2FBF3F2054B6FF370
:1002E0000901032A9B5CC36500D9091D8165084685
:1002F000704700003817000810B5014600208B69D0
:100300008A6A4FF0C07453B1B3F5005F15D072B173
:10031000012A0CD0022A0AD0032A09D104E01AB11A
:10032000012A06D0022A03D1C96AC90100D50120D9
:1003300010BDC96AA142FAD010BD002AF7D0012A27
:10034000F2D0022AF3D0032AF3D010BD30B50468EE
:10035000256825F480252560046863608368402B48
:10036000036803D099600068C26030BD9A6000687D
:10037000C16030BD704770472DE9F84304464FF027
:100380000009CDF8009063484FF41651A56D006840
:10039000B0FBF1F72E6894F85C10082000FA01F128
:1003A00031420FD021680A6852070BD50A6822F043
:1003B00004020A6094F85C108840A860606D40F008
:1003C0000100606594F85C104FF0010808FA01F034
:1003D000304208D021684969090604D5A860606DDB
:1003E00040F00200606594F85C10042088403042C0
:1003F00008D021680968890704D5A860606D40F0BD
:100400000400606594F85C1010208840304218D0D9
:1004100021680968090714D5A860206801684903A4
:1004200004D50068000308D5A16C07E00168C90580
:1004300003D4016821F008010160216C09B1204654
:10044000884794F85C1020208840304231D02168E1
:100450000968C9062DD5A86094F8350005282068DC
:10046000016806D0490347D5006800031DD4616CBC
:100470001CE021F0160101602068416921F0800133
:100480004161206C08B9A06C20B12068016821F09E
:100490000801016094F85C103F208840A86084F84F
:1004A000349084F83580216D1FE0E16B09B120465E
:1004B0008847606D00282BD0606DC00714D00520E0
:1004C00084F835002068016821F00101016000987E
:1004D000401C0090B84203D820680068C007F6D1DD
:1004E00084F8349084F83580E16C002910D001B094
:1004F0002046BDE8F04308470168C905D5D4016826
:1005000021F01001016084F8349084F83580CCE744
:10051000BDE8F8830C0000202DE9F041044600F00E
:1005200095F906465CB1002584F83450022084F821
:1005300035002068016821F0010101600DE0012013
:10054000BDE8F08100F082F9801B052805D9202044
:100550006065032084F83500F2E720680068C00772
:10056000F0D12268116820480140D4E90103184302
:10057000D4E903363343184363691843A369184326
:10058000E3691843236A18430843616A042903D1C5
:10059000D4E90B1319430843106020684069666A68
:1005A00020F0070130460E43012704280CD1A06A31
:1005B0000643E06A40B12046FFF79EFE20B140208E
:1005C000606584F83570BAE7206846612046FFF719
:1005D0007FFE94F85C203F2191408160656584F83E
:1005E00035700020ACE700003F8010F02DE9F041AD
:1005F0000446866D90F83400002501280DD00120B6
:1006000084F8340094F835700020012F07D084F866
:10061000340002252846BDE8F0810220FBE70227CE
:1006200084F8357060652046FFF790FE94F85C1002
:100630003F208840B0602068016841F016010160E9
:100640002068416941F080014161206C20B120683F
:10065000016841F0080101602068016841F0010172
:100660000160D7E770B5044600F0F0F80546601C5D
:1006700002D004480078044400F0E8F8401BA0428F
:10068000FAD370BD000000202DE9F84FDFF87CB1EF
:1006900000224FF001084FF0030A4FF00F090BF151
:1006A000040E00BF0B6808FA02F42340A3426ED187
:1006B0004D68022D01D0122D0ED1D50800EB850C0E
:1006C000DCF820505607F70E09FA07F6B5430E6915
:1006D000BE402E43CCF82060066855000F790AFA18
:1006E00005FC07F0030726EA0C06AF403743076016
:1006F0004E68012E05D0022E03D0112E01D0122EED
:100700000ED18668CF6826EA0C06AF403743876073
:100710004668A6430C79C4F3001494403443446003
:10072000C6688C6826EA0C06AC403443C4604C684A
:10073000E40065D5364C256845F48045256024687D
:1007400022F0030504F480440094324C2E19D6F8AC
:10075000084895072F0F09FA07F5AC432E4DA8421C
:1007600001D1002524E02D4DA84201D101251FE033
:100770002B4DA84201D102251AE02A4DA84201D1F1
:10078000032515E0284DA84202D1042510E037E0EA
:10079000264DA84201D105250AE0254DA84201D1E8
:1007A000062505E0234DA84201D1072500E00825D4
:1007B000BD402543C6F80858DBF800405D464E684A
:1007C0009C43F60300D51C432C60DEF800407546C0
:1007D0004E689C43B60300D51C432C600B4D083576
:1007E0002C684E689C43F60200D51C432C60074DD4
:1007F0000C352C684E689C43B60200D51C432C6017
:10080000521C102AFFF44EAFBDE8F88F003C0140A7
:100810004438024000300140000002400004024021
:1008200000080240000C0240001002400014024088
:1008300000180240001C024042694A404261704771
:100840000AB1816170470904FBE700000148806834
:1008500070470000000000200248816802781144BF
:1008600081607047000000200B4810B5016841F41A
:1008700000710160016841F480610160016841F428
:1008800080710160032000F06DF8002000F006F890
:1008900000F024F8002010BD003C024070B50D4D62
:1008A00004464FF47A712878B1FBF0F00A490968E0
:1008B000B1FBF0F000F0E0FA48B9102C07D20022AA
:1008C0002146501E00F02EF800206C6070BD012003
:1008D00070BD0000000000200C0000200A4808B590
:1008E000016841F480410160006800F4804000909C
:1008F0000548001F016841F080510160006800F068
:100900008050009008BD00004438024000F01F02F3
:10091000012191404009800000F1E020C0F8001161
:1009200070470000F0B40E4B1B680C46C3F3022363
:10093000C3F10705042D00D90425191D072901D28B
:10094000002300E0DB1E012606FA05F1491E2140C6
:1009500099409E40761E16403143F0BC00F056BCD4
:100960000CED00E0064900F0070208684FF6FF03AF
:10097000184040EA0220034A104308607047000014
:100980000CED00E00000FA052DE9F0470E460500E9
:1009900065D0DFF81481D8F80000F7B200F00F003E
:1009A000B04207D288F80070D8F8000000F00F00BD
:1009B000B04254D128683D4C810712D5400703D579
:1009C000206840F4E05020602878000703D52068B4
:1009D00040F4604020602068A96820F0F0000843DF
:1009E00020602878C0072DD0304968680839012870
:1009F00012D0022813D0032811D0096889070029D2
:100A00002DDA216821F0030101432160FFF71EFF69
:100A1000814641F2883A0EE009688903EFE70968E8
:100A20008901ECE7FFF712FFA0EB0901514502D95C
:100A30000320BDE8F0872068696800F00C00B0EB87
:100A4000810FEFD1D8F80010404601F00F01B142FC
:100A500007D90770006800F00F00B04201D00120F4
:100A6000E7E72878400705D52068E96820F4E050DA
:100A7000084320602878000706D52068296920F4FB
:100A8000604040EAC100206000F036F82168084A62
:100A9000C1F30311515CC840064908600020FFF70C
:100AA000FDFE0020C5E70000003C0240083802407F
:100AB000401700080C000020044805490068096838
:100AC000044AC1F38221515CC84070470C000020E9
:100AD00008380240501700080448054900680968B2
:100AE000044AC1F34231515CC84070470C000020F9
:100AF0000838024050170008154810B5006810F07B
:100B00000C02144813D01449042A0FD0082A0ED11D
:100B10000F4C241F2268236802F03F025B0207D5B6
:100B20002068C0F38810A0FB010106E0084610BD54
:100B30002168C1F38811A1FB00010023FFF740FBEE
:100B40002168C1F30141491C4900B0FBF1F010BD1F
:100B5000083802400024F40040787D012DE9F84F68
:100B6000050076D02878DFF8F8B2BE4CC00749D02F
:100B7000DBF800105846C1F38101012908D0006854
:100B8000C0F3810002280AD1201D0068400206D56A
:100B90002068800336D568680028E2D032E06868B3
:100BA000B0F5803F10D0B0F5A02F206810D020F411
:100BB00080302060206820F4802020606868A0B128
:100BC000FFF744FE06460CE0206840F48030F4E76E
:100BD00040F480202060F7E7FFF738FE801B642890
:100BE00073D820688003F7D50CE0FFF72FFE064688
:100BF00005E000BFFFF72AFE801B6428F0D82068BC
:100C00008003F7D42878DFF8608280074FF000096E
:100C10003ED5DBF80010584611F00C0F09D00068E3
:100C2000C0F3810002280BD18D48001F00684002EC
:100C300006D42068800715D5E868012809D111E09D
:100C4000E868B8B10120C8F80000FFF7FFFD0646CC
:100C500005E002E1FFF7FAFD801B0228C0D82068FA
:100C60008007F7D52068296920F0F80040EAC10024
:100C700020600DE0C8F80090FFF7E8FD064604E0AC
:100C8000FFF7E4FD801B02281FD820688007F7D4F7
:100C90002878000722D5724E744869696C3671B1A4
:100CA00001210160FFF7D2FD074604E0FFF7CEFD0A
:100CB000C01B022809D830688007F7D50EE0C0F8BD
:100CC0000090FFF7C3FD074605E083E0FFF7BEFD98
:100CD000C01B02287ED830688007F7D428784007E8
:100CE00068D5DFF87CA100270AF1380ADAF800009D
:100CF000C0000BD4DAF8001041F08051CAF800109F
:100D0000DAF80000012700F080500090584E30685B
:100D1000C00510D4306840F480703060FFF796FD55
:100D2000009005E0FFF792FD0099401A022851D883
:100D30003068C005F6D54A4EA868683601280FD03D
:100D40000528306810D020F001003060306820F0B5
:100D500004003060A868B8B1FFF778FD00900FE09C
:100D6000306840F00100F4E740F004003060F7E73D
:100D7000FFF76CFD0099411A41F28830814264D836
:100D800030688007F4D50EE0FFF760FD009007E0C3
:100D9000FFF75CFD0099411A41F28830814254D836
:100DA00030688007F4D42FB1DAF8001021F08051B8
:100DB000CAF80010A869C0B3DBF80010C1F38101C4
:100DC00002294AD00228484607D0C8F86000FFF739
:100DD0003DFD00E039E005463AE04746C8F86000CE
:100DE000FFF734FD064604E0FFF730FD801B0228C4
:100DF0002BD820688001F7D4D5E907010843A96AF8
:100E00001C4A490802EB01416A6A41EA821108431F
:100E100095F82C1040EA01611148001F0160012083
:100E20003866FFF713FD054605E014E0FFF70EFDF9
:100E3000401B022809D820688001F7D50BE000BFCD
:100E4000FFF704FD401B022802D90320BDE8F88FFC
:100E500020688001F4D40020F8E70120F6E70000C4
:100E6000083802400038024000004742800E4742E6
:100E7000007000400000FFFF10B5401EB0F1807F01
:100E800001D3012010BD4FF0E02460610F216017F5
:100E900000F0BCF90020A06107202061002010BDF7
:100EA000704770B5040004D094F83900002510B1E3
:100EB00006E0012070BD84F83850204600F022F88A
:100EC000242084F839002068C16821F40051C160F1
:100ED000204600F079FA2068016921F4904101610F
:100EE0002068416921F02A0141612068C16841F40C
:100EF0000051C160E563202084F8390084F83A008D
:100F0000002070BD2DE9F04F87B0064614216846D9
:100F1000FFF78EF95748DFF858811038D6F800C02F
:100F200000245449022201230325DFF84CE1071570
:100F30004FF0080A4FF00069C4452DD1D1F800C028
:100F40004CF4002CC1F800C0096801F4002105919F
:100F5000016841F0040101600068694600F0040086
:100F60000590A8028DE82D047046FFF78DFB444DD7
:100F70004248E5E80209402091C5C00245F81449FD
:100F8000AC61C5E907403E486C62FFF7C5FA08B19D
:100F9000FFF7F1F9356332E0DFF8E8804FF4807B4A
:100FA000C44530D1D1F800C04CF4003CC1F800C0B9
:100FB000096801F400310591016841F00101016007
:100FC0000068694600F0010005900C208DE82D00B6
:100FD000072004902C48FFF757FB28482B4D18306A
:100FE0002860C5E90194C5E903476C61C5E9064B72
:100FF0002C6228466C6234E0FFF7BDF935E0AE6341
:1010000007B0BDE8F08F22498C45F9D11949091D77
:10101000D1F800C04CF0200CC1F800C0096801F004
:1010200020010591016841F00401016000686946F2
:1010300000F004000590C0208DE82D047046FFF7F5
:1010400023FB154D134828608005C5E90104C5E957
:1010500003476C61C5E9064B4FF40030C5E908044D
:101060002846FFF759FA0028C6D17563C7E7000084
:10107000004C0040403802400008024070600240CE
:10108000DC00002000440040000002403C01002041
:1010900000140140286402409C010020F8B5044679
:1010A00090F83A0020283CD1C1B3BAB394F8380084
:1010B000012836D0012084F83800A162A2850025DD
:1010C000E563222084F83A00636B1748D863636BAA
:1010D00016481864636B1648D864606B1346056540
:1010E0000846666B216802463046091DFFF77EFA06
:1010F000206801684168009184F83850C16841F463
:101100008071C1602068416941F00101416120683E
:10111000416941F0400141610020F8BDFFE7012035
:10112000FBE70220F9E70000531300088F130008C3
:101130000913000870477047FEE70000154808B51E
:10114000016841F400110160016801F4001100918F
:10115000016841F4800101600068002200F4800011
:10116000009011460F20FFF7DDFB0F20FFF7CEFBAD
:10117000002211461020FFF7D5FB1020FFF7C6FB19
:10118000002211463920FFF7CDFBBDE80840392089
:10119000FFF7BCBB3038024070B586B014216846FA
:1011A000FFF746F816480024016841F0010101608C
:1011B000016801F001010591016841F00801016039
:1011C000016801F008010591016841F00401016026
:1011D00000680C4E00F004004FF4704505900022AA
:1011E00029463046FFF72CFB01200095CDE901048C
:1011F000694630460394FFF747FA06B070BD000019
:1012000030380240000C0240FEE770470907090E23
:10121000002806DA00F00F0000F1E02080F8141D2D
:10122000704700F1E02080F8001470477047704765
:10123000FFF712BB30B593B030216846FEF7F8FFD8
:1012400014210CA8FEF7F4FF18480025016841F0AE
:1012500080510160006800F08050119014480168CE
:1012600041F4804101600068022400F48040119044
:101270000120039010200490009406940820CDE9EA
:1012800007505420CDE9090404200B906846FFF76D
:1012900065FC0CA90F2081E83100E002CDE90F05C3
:1012A00002210CA8FFF770FB13B030BD403802409C
:1012B000007000401048016841F4700101600F485F
:1012C000016841F0010101600C4A002108321160FF
:1012D00002680B4B1A400260031D0A4A1A6002683A
:1012E00022F48022026005480C3001600249580651
:1012F000803908607047000088ED00E00038024047
:10130000FFFFF6FE1030002470B5846B2068406942
:1013100094F83910C0F3C0100025212904D118B168
:10132000E584204600F046F82068406994F83A10B9
:10133000C0F38010222904D118B1E585204600F0C1
:101340002BF8E06B40F01000E0632046FFF7A8FDAB
:1013500070BD10B50146806B09680968C90513D4D2
:101360000021C1850168CA6822F48072CA600168E0
:101370004A6922F001024A6101684A6922F040028A
:101380004A61202180F83A10FFF7D4FE10BD10B555
:10139000806BFFF7D0FE10BD0168CA6822F490721E
:1013A000CA6001684A6922F001024A61202180F87E
:1013B0003A1070470168CA6822F0C002CA60202152
:1013C00080F83910704700002DE9F04104460068AC
:1013D000016921F44052E168114301612168C86844
:1013E00049F20C6290432369A268E5691A43636974
:1013F0002B431A430243CA602168486920F44072B3
:10140000A06910434861E1696425B1F5004F974830
:10141000974A21684FF032083FD0914201D0814273
:101420007CD1FFF759FB00EBC00101EB00106168B4
:101430008900B0FBF1F6FFF74FFB00EBC00101EBB9
:10144000001061688900B0FBF1F0B0FBF5F06FF0BF
:101450001801484306EB800108EB0110B0FBF5F0E2
:1014600000F0F006FFF738FB00EBC00101EB0010C5
:1014700061688900B0FBF1F0B0FBF5F006EB0016F7
:10148000FFF72AFB00EBC00101EB00106168890047
:10149000B0FBF1F7FFF720FBD2E0914201D081428F
:1014A0003DD1FFF719FB00EBC00101EB00106168B3
:1014B0004900B0FBF1F0B0FBF5F00601FFF70CFBC3
:1014C00000EBC00101EB001061684900B0FBF1F7CF
:1014D000FFF702FB00EBC00101EB0010616849005F
:1014E000B0FBF1F0B0FBF5F06FF01801484307EBEB
:1014F000800108EBC100B0FBF5F000F0F80006EB4E
:101500004006FFF7E9FA00EBC00101EB001061684B
:101510004900B0FBF1F7FFF7DFFA3CE055E0FFF7D9
:10152000CBFA00EBC00101EB001061684900B0FB91
:10153000F1F0B0FBF5F00601FFF7BEFA00EBC001D9
:1015400001EB001061684900B0FBF1F7FFF7B4FA56
:1015500000EBC00101EB001061684900B0FBF1F045
:10156000B0FBF5F06FF01801484307EB800108EB82
:10157000C100B0FBF5F000F0F80006EB4006FFF705
:101580009BFA00EBC00101EB001061684900B0FB61
:10159000F1F7FFF791FA00EBC00101EB0010616871
:1015A0004900B0FBF1F0B0FBF5F06FF018014843D3
:1015B00007EB800108EBC100B0FBF5F000F007007D
:1015C000216830448860BDE8F081FFF775FA00EBD0
:1015D000C00101EB001061688900B0FBF1F6FFF774
:1015E0006BFA00EBC00101EB001061688900B0FBF1
:1015F000F1F0B0FBF5F06FF01801484306EB800105
:1016000008EB0110B0FBF5F000F0F006FFF754FA1C
:1016100000EBC00101EB001061688900B0FBF1F044
:10162000B0FBF5F006EB0016FFF746FA00EBC00141
:1016300001EB001061688900B0FBF1F7FFF73CFA9D
:1016400000EBC00101EB001061688900B0FBF1F014
:10165000B0FBF5F06FF01801484307EB800108EB91
:101660000110B0FBF5F000F00F00A9E700140140F5
:1016700000100140FEE702E008C8121F08C1002A5E
:10168000FAD170477047002001E001C1121F002A03
:10169000FBD17047FFF7E8F8FFF7CCFDFFF77CFDC3
:1016A000FFF74CFD20481F494FF4E136002401604C
:1016B000C0E901640C25C460C0E904458461C461CB
:1016C000FFF7EFFB18481949403001604FF496418D
:1016D000C0E90114C460C0E904458461C461FFF736
:1016E000E0FB1148124980300160C0E90164C46028
:1016F000C0E904458461C461FFF7D3FB0A490A22AB
:10170000C031A1F18000FFF7C9FC0A4D4FF400542D
:101710004FF47A7621462846FFF78EF83046FEF7DA
:10172000A1FFF7E7004C00401000002000440040FB
:1017300000140140000C02400006101600061016AE
:101740000000000000000000010203040607080971
:1017500000000000010203047817000800000020C8
:1017600010000000761600088817000810000020FE
:10177000F0050000861600080100000010000000BF
:08178000000000000024F40049
:040000050800018965
:00000001FF
